S015000046696E616C5F50726F6A6563742E73726563EF
S11300000C9434000C943E000C943E000C943E007E
S11300100C943E000C943E000C943E000C943E0064
S11300200C943E000C943E000C943E000C943E0054
S11300300C943E000C943E000C943E000C943E0044
S11300400C943E000C943E000C943E000C943E0034
S11300500C943E000C943E000C943E000C943E0024
S11300600C943E000C943E0011241FBECFEFD8E048
S1130070DEBFCDBF0E9440000C94D8000C94000059
S11300800E94690080E00E94C3006C0181E00E942C
S1130090C3007C0182E00E94C3008C0183E00E94C3
S11300A0C300EC01B60181E00E949800B70182E030
S11300B00E949800B80183E00E949800BE0184E089
S11300C00E94980083ED90E30197F1F700C00000CF
S11300D0D9CF84B1866084B98AB188648AB9E0E8EA
S11300E0F0E08081826A8083E1E8F0E080818A61C7
S11300F080838FE39CE99093870080938600E0EBF4
S1130100F0E08081836A8083E1EBF0E080818A60A3
S113011080831092B3001092B400ECE7F0E0808189
S113012080648083EAE7F0E08081876880830895B3
S11301306C507E4F660F771F823071F018F4813057
S113014031F00895833069F08430A1F008957093FC
S1130150890060938800089570938B0060938A00EF
S11301600895729562956F7067277F706727609313
S1130170B3000895729562956F7067277F70672743
S11301806093B4000895ECE7F0E09081907F8F7065
S1130190892B8083EAE7F0E080818064808380910A
S11301A07A0086FDFCCF80917800909179000895C3
S10701B0F894FFCFED
S9030000FC
